:020000040800F2
:1000000040050020D500000865180008B910000858
:1000100000000000000000000000000000000000E0
:10002000000000000000000000000000191A000895
:100030000000000000000000D31800081B1A000890
:10004000E7000008E7000008E7000008E7000008F4
:10005000E7000008E7000008E7000008E7000008E4
:10006000E7000008E7000008E7000008E7000008D4
:10007000E7000008E7000008E7000008E7000008C4
:10008000E7000008E7000008E7000008E7000008B4
:10009000E7000008E7000008E7000008E7000008A4
:1000A000BD100008E7000008E7000008E7000008AE
:1000B000E7000008E7000008E7000008E700000884
:1000C0000348854600F06CF80048004731220008DC
:1000D000400500200448804704480047FEE7FEE74B
:1000E000FEE7FEE7FEE7FEE79D1A0008C1000008F4
:1000F00030B50B46014600202022012409E00D46C0
:10010000D5409D4205D31D469540491B2546954047
:1001100040191546521E002DF1DC30BD10B5202AC5
:1001200004DB0846203AD040002110BD0B46D340E6
:10013000D0402024A21A91400843194610BDF0B5C2
:100140001FB40646002082B005464024019100906D
:100150001BE0019922460F463046FFF7DFFF049A65
:10016000059B801A994110D310461946224600F08B
:1001700029F8361A8F410197224601200021009F5D
:1001800000F020F838184D4100902046641E0028E9
:10019000DFDC019B00982946324607B0F0BD000025
:1001A000064C0125064E05E0E36807CC2B430C3CCA
:1001B00098471034B442F7D3FFF786FFEC220008CB
:1001C0000C23000810B5202A04DB0146203A914098
:1001D000002010BD914020239C1A0346E3401943A0
:1001E000904010BD70B50024014620314A78022AA3
:1001F00003D004218163012416E0026813680E25F0
:10020000AB431360026813685B085B001360012254
:10021000056C1346AB40C56B6B604A7000220A70D8
:10022000416B002900D08847204670BD31B500F0F1
:10023000C3F8009C0546601C00D0641C00F0BCF8AC
:10024000401BA042FAD338BDF8B5002393E0224604
:1002500001249C40A44622407ED04C68022C01D050
:10026000122C0CD1DC08A40027183C6A5D07ED0EA7
:100270000F26AE40B4430E69AE4026433E62056889
:100280005E000324B4400F79A543BF07BF0FB740FA
:100290002F4307604D68012D05D0022D03D0112D8D
:1002A00001D0122D0ED18568CF68A543B7402F43EA
:1002B000876047686546AF430D79ED06ED0F9D40B9
:1002C0003D434560C568A5438C68B4402C43C46079
:1002D0004C68E4004ED52B4CA56901263543A56139
:1002E000A4699D0834400094274CAD002F19BC68C8
:1002F0009D072E0F0F25B540AC430925ED06A842FA
:1003000001D1002514E0214DA84201D101250FE0C3
:100310001F4DA84201D102250AE01E4DA84201D17D
:10032000032505E01C4DA84201D1042500E0052568
:10033000B5402543BD60194C25684E689543F603CA
:1003400000D51543256065684E689543B60300D512
:1003500015436560A56800E00CE04E689543F60221
:1003600000D51543A560E5684E689543B60200D5F3
:100370001543E5605B1C0A681446DA4000D066E766
:10038000F8BD0000001002400000014000040048D9
:1003900000080048000C004800100048000401401C
:1003A0000069084000D001207047002A01D0816117
:1003B0007047816270470000014800687047000084
:1003C0000000002070B5024640325378202B1CD12B
:1003D0001378012B19D0012313702424547004685E
:1003E00025689D432560046825681E03B543256084
:1003F000046825680D4325600068016819430160A1
:10040000202050700020107070BD022070BD70B5AB
:10041000024640325378202B1BD11378012B18D081
:10042000012414702423537003681D68A5431D60C4
:1004300005682B680F263602B34309021943296069
:100440000068016821430160202050700020107076
:1004500070BD022070BD7047704770B503689A691F
:100460001968D40507D50C0605D5446C01252C4325
:1004700044642C02DC61530508D50B0606D5436C99
:10048000082423434364E3010468E361920508D52B
:10049000090606D5416C022211434164110202682B
:1004A000D161416C0B22114202D0416C00F0AAFED6
:1004B00070BD026891691268436B002B00D0184729
:1004C0007047704770B5040006D0254640356878FF
:1004D0000026002802D005E0012070BD2E702046C5
:1004E00000F04CF824206870206801684908490031
:1004F00001600F216068090688432168086121684E
:100500008A680120C00382438A60E1680129A168EA
:1005100008D021229202114322689160E1680229E9
:1005200002D005E00143F7E701212268C9025160CA
:1005300021684A680F4B1A434A602168CA6882439F
:10054000CA60616920690843A169090208432168FA
:10055000C860216AE0690843216808602068016872
:100560000122114301606664202068702663AE702A
:10057000002070BD008000027047000000B50068D8
:10058000124987B088421FD10320400300901220F7
:1005900001900020029003200390052004906946FA
:1005A0000B48FFF751FE0B48C269012189050A4338
:1005B000C261C0690022084005901146182000F071
:1005C000F5F8182000F0E8F807B000BD005800402A
:1005D000000400480010024070477047FFB5054610
:1005E00004464035687881B0164620287ED10298AE
:1005F000002869D0002E67D0287801287ED00120FD
:100600002870FFF7D9FE0746222068702020A870C6
:1006100000206064029961626685606320684168B9
:100620000126F603B14341600097002208212046CD
:10063000049B00F0DDFF002804D0206841683143AE
:1006400041603EE021680820C86141030097012213
:100650002046049B00F0CCFF0028EED120E000F003
:10066000EBFF0028206813D04168314341602068C7
:100670008169C943490707D4416A606A421C6262C2
:100680000170608D401E6085606C202819D01BE0D1
:10069000416A606A421C62620170608D401E608522
:1006A000608D049900283A462046D8D101F000F820
:1006B00000280BD02068416831434160606C0428F9
:1006C00002D0032005B0F0BD0120FBE72168202007
:1006D000C8610097012231462046049B00F088FF44
:1006E0000028AAD120684168314300E006E041605B
:1006F000202068700020A8702870E3E70220E1E75E
:1007000002480168491C0160704700000000002099
:1007100010B506480168102211430160002000F066
:1007200007F800F017F8002010BD0000002002407C
:1007300010B5044600F078F97D21C900FFF7D8FC18
:1007400000F0C6FB00222146501E00F02FF80020CA
:1007500010BD000008B50F48816901221143816175
:10076000816911400091C26901040A43C261C069F4
:100770000022084000901146501F00F017F8002298
:100780001146901E00F012F800221146501E00F093
:100790000DF808BD00100240C106C90E01208840B6
:1007A000014908607047000000E100E010B501F069
:1007B0005BF810BDF8B504460068434DC00352D540
:1007C000E8690026C00007D4E96928040143E9610B
:1007D000E9690140012600913C480168C90510D42F
:1007E0000168821511430160FFF7E6FD074604E04A
:1007F000FFF7E2FDC01B642824D834480068C00518
:10080000F6D5286A03273F02384020D06168394076
:1008100081421CD0286A2A6AB843012109040A438C
:100820002A622A6A8A432A622862C0070FD0FFF729
:10083000C3FD009008E0FFF7BFFD0099411A24486E
:10084000814201D90320F8BD286A8007F3D5286AC0
:100850006168B84308432862002E04D0E86901218A
:1008600009078843E8612078C00705D0286BA16894
:1008700080088000084328632078800706D5286B0D
:10088000032109048843E16808432863207880062F
:1008900005D5286B10218843216908432863206807
:1008A000800305D5286B80218843A169084328630C
:1008B0002088400505D5286B40218843616908439D
:1008C00028630020F8BD00000010024000700040C6
:1008D00088130000F8B505464E480E460068C0076C
:1008E000C00FB0420AD24B48016849084900314361
:1008F00001600068C007C00FB04270D12878464C34
:10090000800705D56068F0218843A96808436060C6
:100910002878C00753D06868012817D0022818D05B
:10092000032819D021688907002958DA61688908E5
:10093000890001436160FFF73FFD696807460129AF
:1009400013D002291DD0032927D034E02168890360
:10095000EAE721688901E7E7616BC903E4E7FFF78C
:100960002BFDC11B2D48814223D860680007800FF2
:100970000128F4D123E0FFF71FFDC11B2748814266
:1009800017D860680007800F0228F4D117E0FFF73E
:1009900013FDC11B214881420BD860680007800FFE
:1009A0000328F4D10BE0FFF707FDC11B1B48814270
:1009B00001D90320F8BD60680007800FF3D1154806
:1009C0000168C907C90FB1420BD90168490849003C
:1009D000314301600068C007C00FB04201D0012060
:1009E000F8BD2878400706D56068072109028843CA
:1009F000E9680843606000F02DF86168084A09065C
:100A0000090F515CC840074908600020FFF790FEBD
:100A10000020F8BD002002400010024088130000B2
:100A2000D42200080400002001480068704700003C
:100A3000040000200448054900684968044A490543
:100A4000490F515CC840704704000020001002406C
:100A5000E422000830B516A30FCB89B06C460FC452
:100A600017A30FCB0FC41A494A680C201446044040
:100A70001848042C05D0184B082C04D00C2C00D19D
:100A8000184609B030BD9402240F6D462C5DC96A2A
:100A900004AD0907090FD203695C920F022A02D044
:100AA000032A00D11846FFF723FB6043E9E7000063
:100AB00002030405060708090A0B0C0D0E0F10109F
:100AC0000102030405060708090A0B0C0D0E0F109E
:100AD0000010024000127A00006CDC02FEB50446F1
:100AE0000078F04EF04DC00748D068680007800FCE
:100AF00001281FD068680007800F022804D16868A9
:100B0000C003800F022815D06168012919D0012087
:100B10008004002901D0052917D02968B143296034
:100B2000296881432960606800281BD0FFF744FCD6
:100B3000074613E02868800320D56068002876D037
:100B40001CE0286830432860EDE7296801432960EC
:100B5000F7E7FFF731FCC01B642869D828688003D9
:100B6000F7D50BE0FFF728FC074604E0FFF724FC6D
:100B7000C01B6428F1D828688003F7D42078800748
:100B80003ED568680007800F14D068680007800FA2
:100B9000022804D16868C003800F01280AD0E068E9
:100BA000002828681DD0012108432860FFF704FCB5
:100BB00007460BE0286880070BD5E068012836D18E
:100BC00007E0FFF7F9FBC01B0228C6D8286880079A
:100BD000F7D52868F82188432169C90008432860AF
:100BE0000EE0400840002860FFF7E6FB074604E0FF
:100BF000FFF7E2FBC01B0228AFD828688007F7D4B4
:100C00002078000724D5E0690028686A11D0012106
:100C100008436862FFF7D0FB074604E0FFF7CCFB10
:100C2000C01B022899D8686A8007F7D510E036E122
:100C3000D1E0400840006862FFF7BEFB074604E0D1
:100C4000FFF7BAFBC01B022887D8686A8007F7D471
:100C5000207804274007002861DA00200190E86925
:100C6000C00008D4E969B8060143E961E9690140B7
:100C70000120009101908D480168C90511D40168D7
:100C8000821511430160FFF797FB009005E0FFF725
:100C900093FB0099401A642897D884480068C005DF
:100CA000F5D5A06801280AD0002801D0052811D068
:100CB000286A400840002862286AB84302E0286A8F
:100CC000012108432862A068002812D0FFF774FBB6
:100CD00000900AE0286A38432862F0E7FFF76CFBCF
:100CE0000099411A7248814275D8286A8007F5D563
:100CF0000DE0FFF761FB009006E0FFF75DFB009958
:100D0000411A6B48814266D8286A8007F5D4019859
:100D1000002804D0E969012000078143E9612078B7
:100D2000C00635D5606901280CD0401D686B24D001
:100D300038436863686B400840006863FFF73CFB1A
:100D4000074622E0686B38436863686B01210843FB
:100D50006863FFF731FB074604E0FFF72DFBC01B7C
:100D6000022838D8686B8007F7D5686BF82188436C
:100D7000A169C900084368630AE0B8436863F4E7FF
:100D8000FFF71AFBC01B022825D8686B8007F7D431
:100D90002078800637D568680007800F032813D0B5
:100DA00068680007800F022804D16868C003800FBC
:100DB000032809D0206A0028686B16D03043686386
:100DC000FFF7FAFA06460CE0686BC0031BD5206AF1
:100DD000012864D117E05BE0FFF7EEFA801B0228E0
:100DE00056D8686BC003F7D50DE0B0436863FFF7D2
:100DF000E3FA064604E0FFF7DFFA801B022847D833
:100E0000686BC003F7D4606A002846D06968090798
:100E1000890F022943D0012636060228286805D00A
:100E2000B0432860FFF7C8FA044633E0B0432860B7
:100E3000FFF7C2FA074604E0FFF7BEFAC01B02281C
:100E400026D828688001F7D4E86A216B00090001E0
:100E50000843E862A16AE06A084369687B22D2031A
:100E6000914308436860286830432860FFF7A4FA7C
:100E7000044604E0FFF7A0FA001B022808D82868FF
:100E80008001F7D509E0FFF797FA001B022801D986
:100E90000320FEBD28688001F5D40020FEBD01209E
:100EA000FEBD000000000100001002400070004084
:100EB00088130000042204490428086902D09043E2
:100EC000086170471043FBE700E000E07047000056
:100ED000094910B5401E884201D9012010BD074CB8
:100EE00060610321081F00F0BFFC0020A061072003
:100EF0002061002010BD0000FFFFFF0000E000E0C7
:100F000010B5FFF7E3FF10BD70B5040005D025460E
:100F10006035687A002802D006E0012070BD00200C
:100F20002872204600F026F82420687220680168A4
:100F3000490849000160204600F07EFE0128EDD0FE
:100F4000606A002802D0204600F0D6FD2068416883
:100F50000922D20291434160206881682A2291438C
:100F6000816020680168012211430160204600F081
:100F700029FE70BD30B51A4D0468002119480222BF
:100F8000032387B0AC4211D18569540325438561A1
:100F90008069029120400590580200900120049041
:100FA0000920039301926946C00614E00E4DAC423D
:100FB00013D1C5690124A4042543C561C069029108
:100FC00020400590032080020090042004900393A9
:100FD000019269460548FFF737F907B030BD0000B8
:100FE0000038014000100240004800400004004862
:100FF000FFB5064604466036707A83B00D46202859
:1010000058D1002D0CD00598002809D00120A168E6
:101010000003814207D12069002804D1E80702D0EB
:10102000012007B0F0BD307A012843D00120307292
:101030000020E06621207072FFF7BEF9019027467C
:101040004037059838820598788218E0788A401EE3
:10105000788206980090002280212046019B00F0B3
:1010600099FE002818D10120A1680003814202D115
:101070002069002812D02168287808856D1C788A9C
:101080000028E3D106980090002240212046019BD1
:1010900000F080FE002808D00320C2E728882168DD
:1010A000C005C00D0885AD1CE9E720207072002046
:1010B0003072B6E70220B4E7FEE7000010B506483C
:1010C000006880694005400F034802D0FFF7C5F96A
:1010D00010BDFFF7EEF910BD1400002010B5406AF6
:1010E00001684A680123DB031A434A60826B0021CE
:1010F0005163C26B5163014640314A78602A02D085
:10110000FFF7DFF910BD20224A70FFF7A4F910BDE8
:10111000F0B503460022CE0740332824B025002E28
:1011200005D05E7842222746B74300D0F2228E07D0
:1011300005D544265B7832439C4300D02A434B07B5
:1011400001D5B8231A4311238B4301D190231A43AD
:1011500012238B4301D160210A4300680168914347
:1011600001600020F0BD01688A69D243920701D472
:1011700000228A6200688169C943C90703D0816976
:101180000122114381617047F8B505460446403598
:10119000687828218143206804D00821C16100209B
:1011A0002870F8BD8169C903CF0F8169FE230E0C39
:1011B00081681E408A05C168920D19408C46E1681D
:1011C000022912D10621D3090E400B409E420BD1B9
:1011D000A16C491CA164A16C0229E2D10021A16487
:1011E0000823C361297007E0664604212046FFF703
:1011F0008FFF00202870324639462046FFF72CF931
:10120000F8BD0000F8B50026054640350446AE702E
:101210002C48E0626685606C08436064687820272B
:10122000282823D06878292820D068782A281DD03B
:1012300007212046FFF76CFF6878602800D06F70A8
:1012400026636663206801684A041F49026817D54F
:1012500001239B039A430260A06B41632E70A06B35
:10126000FEF7C0FF00281DD0A06B19E00321204627
:10127000FFF74EFF28206870266314486063E1E79B
:10128000120410D502680123DB039A430260E06B6D
:1012900041632E70E06BFEF7A5FF002802D0E06BE3
:1012A000416B8847F8BD6878602804D02E702046CE
:1012B000FFF707F9F8BD6F702E702046FFF7CBF8E7
:1012C000F8BD00000000FFFFDD100008D914000881
:1012D00070B504461548E0620025256320222046AB
:1012E00040300646427085706563480711D5206816
:1012F000416A606A421C62620170208D002808D039
:10130000401E2085608D401E6085606C042108436E
:10131000606407212046FFF7FBFE21681020C861AA
:1013200035702046FFF728F970BD00000000FFFF70
:10133000F8B50446006820260F46C66121680820DB
:10134000C86107212046FFF7E3FE20684168B2022A
:1013500011434160206841682D4A11404160204698
:10136000FFF701FF20680168254649044035002940
:1013700002DB0168090406D5697821292FD0E16BC9
:10138000096849686185628D0421002A02D0626C77
:101390000A4362647A070FD5426A606A431C63623B
:1013A0000270208D002807D0401E2085608D401ED1
:1013B0006085606C0843606400202063A8706063EF
:1013C000616C00290DD0616C2046FFF71BFF687827
:1013D000282803D139462046FFF77AFFF8BDA16BD4
:1013E000CEE7E26A0B498A4206D0E1626E7028704D
:1013F0002046FFF7C1F8F8BD69786E702229287081
:10140000204602D0FFF7E9F8F8BDFFF7E5F8F8BD90
:1014100000E800FE0000FFFF70B5002604464034DF
:101420000546A6706178282029290ED061782A29DE
:101430000AD160702220286302212846FFF768FE47
:1014400026702846FFF7C8F870BD60702120286319
:1014500001212846FFF75CFE26702846FFF7BDF8FD
:1014600070BD0000F7B5044600680E468069C043B1
:10147000C0062CD420272546403520688069C0430B
:1014800080060FD5701CF8D0002E05D0FEF794FF13
:101490000299401AB042F0D96F700020A8702870ED
:1014A0000320FEBD21681020C8612068C761204666
:1014B000FFF759FE20684168064A11404160042048
:1014C00060646F700020A87028700120FEBD0020AD
:1014D000FEBD000000E800FEF8B5054604464035B4
:1014E000287816460F46012811D0012028703F4960
:1014F000F8062DD5F0062BD5628D1020002A08D0D5
:101500002168C861606C04210843606462E00220C5
:10151000F8BDE36A01225206934202D0E36A934285
:1015200002D16A78282A08D0E26A8A4202D0697811
:10153000292907D02168C8614CE039462046FFF7C9
:10154000C7FE47E02168C8612046FFF70CFE3EE079
:10155000780717D5700715D5608D00280BD0206847
:10156000426A606A431C63620270208D401E2085BF
:10157000608D401E6085608D00282BD1E06A884216
:1015800025D127E0380706D5300704D5394620464F
:10159000FFF7FAFD1EE0B8071CD5B0071AD5608D1D
:1015A00000280CD0606A411C616221680078886262
:1015B000608D401E6085208D401E20850AE0E06A17
:1015C00001210906884202D0E06A002802D12046A3
:1015D000FFF722FFB80605D5B00603D539462046E9
:1015E000FFF7A6FE00202870F8BD00000000FFFFF6
:1015F000F8B51C4617460E46054611E0601C0FD094
:10160000002C05D0FEF7D8FE0699401AA04207D953
:101610002020403568700020A87028700320F8BD95
:10162000286881693046884304D00020B842E5D05C
:101630000020F8BD0120F9E7F7B500272026054670
:10164000044640352AE02046029A0199FFF70AFF36
:10165000002801D00120FEBD20688069C0438006BB
:101660000BD42068C66120684168104A114041606F
:1016700067646E70AF702F70ECE70198002806D099
:10168000FEF79AFE0299411A0198814206D9606CD0
:10169000304360646E702F700320FEBD2068806947
:1016A000C0434007CFD40020FEBD000000E800FE8C
:1016B00070B516460D4604461AE0324629462046C5
:1016C000FFF7D0FE002801D0012070BD002D04D00E
:1016D000FEF772FE801BA8420AD9616C20200143EC
:1016E0006164403460700020A0702070032070BDE1
:1016F00020688069C0438006DFD4002070BD0000F0
:10170000F0B5244887B04269012149040A43426187
:1017100042690A400592426949000A4342614069B0
:1017200000220840059009201B49C006FEF73DFE37
:10173000FF261A4FB600002231463846FEF735FE26
:10174000FF2000240090012509200294694601959C
:101750000394C006FEF778FD029469463846009669
:1017600001950394FEF770FD28026A4631C20920F4
:101770006946C006FEF768FDE8030090022002906B
:101780000920019569460394C006FEF75DFD07B088
:10179000F0BD000000100240FF800000000400487F
:1017A00010B5124810490160114941600A21816059
:1017B0000121C1600021016141618161C16101625A
:1017C000FEF780FE002800D0FEE700210748FEF764
:1017D000F9FD002800D0FEE700210448FEF717FEBF
:1017E000002800D0FEE710BD005800401400002083
:1017F000885D801010B50C480A4901604B21C90171
:10180000416000218160C16001618161C1610C2280
:10181000016242614162FFF777FB002800D0FEE7DA
:1018200010BD0000003801406000002010B50C48D9
:101830000A4901604B21C901416000218160C160FA
:1018400001618161C1610C22016242614162FFF765
:101850005BFB002800D0FEE710BD00000048004000
:10186000D0000020704700008307FF22DB0E9A4063
:101870008907090E994000280BDA0007000F083885
:10188000830808489B001818C36993430B43C3613E
:101890007047830804489B001B181868904308434E
:1018A0001860704700ED00E000E400E010B5092486
:1018B000FF21E40601312046FEF772FD0121C90334
:1018C000002804D000222046FEF76FFD10BD012243
:1018D000F9E7704770B50925ED0601212846FEF7A6
:1018E0005FFD434CC001207002212846FEF758FDE1
:1018F000810120780143217004212846FEF750FD24
:10190000410120780143217008212846FEF748FD57
:10191000217800010843207010212846FEF740FD81
:101920002178C0000843207020212846FEF738FDAA
:10193000217880000843207040212846FEF730FDC2
:10194000217840000843207080212846FEF728FDBA
:10195000217808432070014626A000F04DFA294D59
:1019600004212846FEF71CFDC001207008212846EE
:10197000FEF716FD217880010843207010212846CB
:10198000FEF70EFD217840010843207020212846F3
:10199000FEF706FD01012078014321704021284611
:1019A000FEF7FEFC2178C000084320708021284605
:1019B000FEF7F6FC8100207801432170FF21013100
:1019C0002846FEF7EDFC21784000084320700121F5
:1019D00049022846FEF7E4FC2178084320700146BE
:1019E00009A000F009FA0A20FEF720FC70BD0000F3
:1019F00009000020434B5F5041203D20307825787E
:101A00000D0A000000040048434B5F5042203D2077
:101A1000307825780D0A0000704710B5FEF770FE8B
:101A2000FFF76EFA10BD70B598B002251020099529
:101A300004900095C0020A904001012600240B90FA
:101A400003960C946846FFF749F8002800D0FEE79B
:101A500007200D900F9401210E9510940DA8FEF70C
:101A600039FF002800D0FEE711A811961394FEF765
:101A7000A1FE002800D0FEE7FEF7D6FF7D21C900B9
:101A8000FEF736FBFFF724FA0420FFF713FA0022D3
:101A90001146501EFEF78AFE18B070BD124801684C
:101AA0000122114301604168104A11404160016800
:101AB0000F4A1140016001680122920491430160C4
:101AC00041683F22120491434160C16A090909013A
:101AD000C162016B074A11400163416B490849002B
:101AE0004163002181607047001002400CB8FF087C
:101AF000FFFFF6FE2CFEFCFF10B5818CC90707D056
:101B000001684A6801235B049A43836A1A434A6066
:101B1000818C890707D501684A6801231B049A4311
:101B2000C36A1A434A60818C490707D501684A682D
:101B300001239B049A43036B1A434A60818C090773
:101B400007D501684A680123DB039A43436B1A43B4
:101B50004A60818CC90607D50268916801231B037E
:101B60009943836B19439160818C890607D501687D
:101B70008A6801235B039A43C36B1A438A60818C92
:101B8000490612D503685A6801210905046C8A4385
:101B900022435A60026C8A4207D1026851680323CB
:101BA0005B059943436C19435160818C090607D545
:101BB00001684A680123DB04806C9A4302434A604F
:101BC00010BD0000F8B500260446C666FEF7F4FB1B
:101BD000054616492068884202D0154988421DD121
:101BE0000068144F000709D501212B460022490542
:101BF0002046009700F0CEF800280DD1206800683C
:101C000040070BD501212B4600228905204600976D
:101C100000F0C0F8002801D00320F8BD2020603477
:101C20006072A07226720020F8BD000000380140EA
:101C300000440040FFFFFF01F8B504462369A26895
:101C4000E5691A43636910202B43002125681A4374
:101C50002B680E46474F3B4013432B6023685A685E
:101C600003252D03AA43E5682A435A60236AA26923
:101C700025681A43AB680B273F02BB431343AB6095
:101C80003D4F25683D4B0203BD420AD11B6B9B07AC
:101C90009B0F20D0012B14D0022B14D0032B1BD16F
:101CA0000DE0374FBD4210D11B6B03273F043B4073
:101CB00011D09B1A05D09B1A05D093420CD102205B
:101CC0000AE0042008E0082006E02E4B9D4202D0E6
:101CD0002D4B9D4200D100200123E769DB039F4289
:101CE00022D100280CD002280DD0042813D00828B7
:101CF00017D001260A0912010807400F10432EE0F1
:101D0000FEF798FE09E06168204A48088018FEF74F
:101D1000EFF981B2EEE7FEF79DFE616840004A08E8
:101D2000F4E761684808F1E7002808D0022809D0E4
:101D300004280CD0082815D001263046F8BDFEF73F
:101D400079FE06E06168124A480880180DE0FEF747
:101D500081FE61684A088018FEF7CAF980B22168DE
:101D6000C860EAE761684808C018FEF7C1F980B2A8
:101D7000E860E2E7F369FFEF00380140001002403D
:101D80000044004000480040004C00400024F400A3
:101D900000127A00FFB581B017460E4604460A9D30
:101DA0001DE0681C1BD0002D05D0FEF705FB049933
:101DB000401AA84213D920680168FF22A13291433A
:101DC00001602068816849084900816020206034F2
:101DD0006072A07200202072032005B0F0BD206860
:101DE000C1693046884304D00020B842D9D00020D1
:101DF000F3E70120F9E700000FB410B503A9044B85
:101E0000044A029800F018F810BC08BC04B0184747
:101E10000D2200081000002002E008C8121F08C1AF
:101E2000002AFAD170477047002001E001C1121F5B
:101E3000002AFBD170470000FFB58FB00F46044663
:101E4000002606E025280AD0129A11999047641CB2
:101E5000761C20780028F5D1304613B0F0BD00255F
:101E60000121A14A009500E00543641C237808463F
:101E7000203B98401042F7D120782E2815D104201D
:101E800005436078641C2A280AD101CF641C0090A5
:101E90000BE000990A22514330394018641C00902D
:101EA0002078014630390929F3D920786C280ED0E2
:101EB00004DC4C2813D06A2812D104E074280ED018
:101EC0007A280DD10BE001204005054307E00121F0
:101ED000090562780D43824201D16D18641C641CAF
:101EE0002078864669284AD008DC0028B4D05828D3
:101EF0006DD0632810D0642808D140E070286BD0E2
:101F0000732812D0752860D0782860D0129A704655
:101F100011999047761CE5E03878694608720020F0
:101F2000487202A80190012003E038680190002067
:101F3000C0433F1D69070CD5002500E06D1C0099CA
:101F40008D420FDA8542F9DB0199495D0029F5D10F
:101F500008E0002500E06D1C8542FCDB0199495D2D
:101F60000029F8D1761907E0019801990078491CF9
:101F70000191129A119990476D1EF5D2B2E00A2094
:101F8000029000216802400F039102280CD001CF7B
:101F9000C117844600290DDA6246084652420021E4
:101FA000814194462D2008E0FF1DFF08FF0003CF6C
:101FB0008446EFE7280504D52B206A4610740120DB
:101FC0003CE0E8073AD02020F7E70A2000E01020A4
:101FD00000210391029007E01020029000210420CC
:101FE00005430820039100906802400F022810D09A
:101FF00001CF0021844600200D9028071FD5704690
:1020000070280CD0029A1020039B42401A430CD037
:1020100015E0FF1DFF08FF0003CF8446EBE74020DB
:102020006A46107401200D900CE06046084306D00B
:1020300030206A4610747046507402200D9070462D
:10204000582804D029A001900DA80E900DE02CA0D6
:10205000F9E76046039B029AFEF771F8019B8446FC
:102060009B5C0E9A521E0E92137060460843F0D18C
:102070000E9805A9081A20300190680701D500982C
:1020800001E0012000900199884203DD014601989A
:10209000081A00E000200025009006E004A8129A2B
:1020A000405D119990476D1C761C0D988542F5DBBB
:1020B00004E0129A302011999047761C0099481E2E
:1020C00000900029F5DC08E00E980E990078491C74
:1020D0000E91129A11999047761C0199481E019011
:1020E0000029F1DC641CB4E60928010030313233E8
:1020F0003435363738396162636465660000000044
:10210000303132333435363738394142434445462D
:1021100000000000F8B53B4C01212078C2090920DD
:10212000D201C006FEF741F92278402509202A4055
:102130000221C006FEF739F9227820260920324014
:102140000421C006FEF731F9227810200240092050
:102150000821C006FEF729F922780820024009204C
:102160001021C006FEF721F9227804200240092040
:102170002021C006FEF719F92278022709203A40EB
:102180004021C006FEF711F920788021C2070920FE
:10219000D20FC006FEF709F960780421C209D20106
:1021A0001948FEF702F9627808212A401648FEF71E
:1021B000FCF86278102132401348FEF7F6F8627896
:1021C0001020024020211048FEF7EFF86278082026
:1021D000024040210C48FEF7E8F8627804200240F3
:1021E00080210948FEF7E1F86278A9003A400648E4
:1021F000FEF7DBF86078E900C207D20F0248FEF76D
:10220000D4F8F8BD0A0000200004004810B50446C8
:1022100005487D2304700146DB0001220348FEF7D8
:10222000E7FE204610BD00000C00002060000020EA
:10223000FEF76EFAFFF7F7FBFFF762FAFFF7F6FA21
:10224000FFF7D8FAFFF7ACFA00F03AF8FCE7000025
:1022500070B50D4D0024AE1C0CA0FFF7CDFD64231E
:10226000012209490D48FEF7B9F90028F7D12A786B
:1022700021460BA0FFF7C0FD28783055641CE4B25E
:10228000022CE9D370BD000008000020494943201A
:102290007465737421200D0A0000000014000020F2
:1022A000494943204F4B212052455F425546465BEA
:1022B00025645D3D2025780D2020200D0A000000BA
:1022C00010B5FFF7C5FFFFF725FFFFF7EFFAFFF7A0
:1022D00001FB10BD0000000000000000010203042B
:1022E0000607080900000000010203040C2300088F
:1022F0000000002014000000181E00082023000821
:10230000140000202C050000281E0008000000001A
:1023100000127A0000000000000000000000000031
:04000005080000C12E
:00000001FF
